:020000040800F2
:10000000A85E0020E90200089F06000859060008C3
:100010009D06000875050008510D0008000000004D
:10002000000000000000000000000000290200089D
:10003000A90500080000000085020008750B0008F3
:100040000303000803030008030300080303000878
:100050000303000803030008030300080303000868
:100060000303000803030008030300080303000858
:100070000303000803030008030300080303000848
:100080000303000803030008030300080303000838
:100090000303000803030008030300080303000828
:1000A0000303000803030008030300080303000818
:1000B0000303000803030008030300080303000808
:1000C00003030008030300080303000803030008F8
:1000D000030300080303000803030008E50B0008FE
:1000E00003030008030300080303000803030008D8
:1000F00003030008030300080303000803030008C8
:1001000003030008030300080303000803030008B7
:1001100003030008030300080303000803030008A7
:100120000303000803030008030300080303000897
:100130000303000803030008030300080303000887
:100140000303000803030008030300080303000877
:100150000303000803030008030300080303000867
:100160000303000803030008030300080303000857
:100170000303000803030008030300080303000847
:10018000030300080303000800F002F800F03CF845
:100190000AA090E8000C82448344AAF10107DA45E2
:1001A00001D100F031F8AFF2090EBAE80F0013F0F8
:1001B000010F18BFFB1A43F001031847E42F00009A
:1001C00004300000103A24BF78C878C1FAD852072A
:1001D00024BF30C830C144BF04680C6070470000C1
:1001E0000023002400250026103A28BF78C1FBD840
:1001F000520728BF30C148BF0B6070471FB502F0DF
:1002000061FA1FBD10B510BD00F059F91146FFF796
:10021000F5FF00F03FFE00F077F903B4FFF7F2FFBF
:1002200003BC00F07FF900002C4B19680868B0E8A7
:10023000F04F80F30988BFF36F8F4FF0000080F319
:10024000118870470000000008480068006880F3CB
:1002500008884FF0000080F3148862B661B6BFF3DF
:100260004F8FBFF36F8F00DF00BF00BF08ED00E0CE
:10027000DFF80C00016841F470010160704700BFB5
:1002800088ED00E0EFF30980BFF36F8F134B1A681E
:100290001EF0100F08BF20ED108A20E9F04F10600B
:1002A00009B44FF0500080F31188BFF34F8FBFF3B4
:1002B0006F8F01F01BFD4FF0000080F3118809BC27
:1002C00019680868B0E8F04F1EF0100F08BFB0ECD6
:1002D000108A80F30988BFF36F8F70477C0000207D
:1002E000EFF3058070470000094880470948004740
:1002F000FEE7FEE7FEE7FEE7FEE7FEE7FEE7FEE7D6
:10030000FEE7FEE704480549054A064B7047000032
:10031000890B000889010008A8580020A85E002069
:10032000A85A0020A85A0020032A40F2308010F07A
:10033000030C00F0158011F8013BBCF1020F624480
:1003400098BF11F801CB00F8013B38BF11F8013B11
:10035000A2F1040298BF00F801CB38BF00F8013BBE
:1003600011F0030300F07980083AC0F0088051F8DA
:10037000043B083A51F804CBA0E80810F5E7121D39
:100380005CBF51F8043B40F8043BAFF30080D20758
:1003900024BF11F8013B11F801CB48BF11F8012B24
:1003A00024BF00F8013B00F801CB48BF00F8012B47
:1003B000704702F0FF0343EA032242EA024200F0E0
:1003C00002B84FF000020429C0F0128010F0030CB4
:1003D00000F01B80CCF1040CBCF1020F18BF00F838
:1003E000012BA8BF20F8022BA1EB0C0100F00DB8E7
:1003F0005FEAC17C24BF00F8012B00F8012B48BF45
:1004000000F8012B70474FF0000200B513469446E8
:100410009646203922BFA0E80C50A0E80C50B1F15C
:100420002001BFF4F7AF090728BFA0E80C5048BF70
:100430000CC05DF804EB890028BF40F8042B08BF0E
:10044000704748BF20F8022B11F0804F18BF00F80A
:10045000012B704770477047704710B5203AC0F0C5
:100460000B80B1E81850203AA0E81850B1E81850B5
:10047000A0E81850BFF4F5AF5FEA027C24BFB1E8F2
:100480001850A0E8185044BF18C918C0BDE8104063
:100490005FEA827C24BF51F8043B40F8043B08BF6C
:1004A0007047D20728BF31F8023B48BF11F8012B33
:1004B00028BF20F8023B48BF00F8012B7047754663
:1004C00000F02CF8AE4605006946534620F00700C0
:1004D000854618B020B5FFF715FFBDE820404FF066
:1004E00000064FF000074FF000084FF0000B21F01E
:1004F0000701AC46ACE8C009ACE8C009ACE8C009EB
:10050000ACE8C0098D46704710B50446AFF30080D3
:100510002046BDE81040FFF780BE0000004870474D
:100520004458002001491820ABBEFEE72600020017
:10053000704700007CB50121022000F047FA01203D
:100540008DF8040000228DF8062002218DF8051098
:10055000074D4FF480648DF80700009469462846E3
:1005600000F023F82146284600F072F87CBD000018
:1005700000040240FEE700007CB50121082000F0E5
:1005800025FA0020074D4FF480748DF80400009484
:100590006946284600F009F82146284600F051F83F
:1005A0007CBD0000000C02407047F0B5002201271E
:1005B0004FF0030C0B6807FA02F52B40AB422CD12D
:1005C000066853000CFA03F4A64306600E79D0F8CF
:1005D00000E09E4046EA0E0606600E79012E01D02C
:1005E000022E12D18668A64386604E79D0F808E0C4
:1005F0009E4046EA0E0686604668AE434660456801
:100600008E799640B6B235434560C568A543C5604E
:10061000CC799C40C3681C43C460521C102AC9D3C7
:10062000F0BD4B07DB0E9A40C90810B500EB810006
:10063000016A0F249C40A1430162016A11430162D7
:1006400010BD0246002012690A4200D00120704706
:100650004183704701837047FEE700007CB50121AC
:10066000102000F0B3F901208DF8040000228DF86D
:10067000062003218DF80510074D4FF480648DF896
:100680000700009469462846FFF78FFF2146284659
:10069000FFF7E0FF7CBD000000100240FEE770475E
:1006A00030B50F23C27801780125FAB1144A1268D7
:1006B00001F1E02102F4E062C2F5E062C2F3072238
:1006C000C2F10404D3404278A24084781C40144311
:1006D000220181F80024007800F01F018D404009BC
:1006E000800000F1E020C0F8005130BD01F01F0093
:1006F00085404809800000F1E020C0F8805130BDFD
:100700000CED00E002490843024908607047000010
:100710000000FA050CED00E010B40021084B0A4679
:10072000002003EBC004401CC0B262548028F8D300
:10073000491CC9B20829F3D310BC00F0B9B80000B5
:10074000F800002010B57F2816D83F2914D80723B9
:10075000A3EBD10301F00701C1F107040121A1407E
:10076000064CDBB204EBC000002AC25CC9B201D067
:100770000A4300E08A43C25410BD0000F800002084
:100780007CB50121102000F021F901268DF80460CC
:1007900000244FF4F0708DF8064000908DF805406D
:1007A0008DF8074069464048FFF7FFFE0121080722
:1007B00000F018F9012000F003F9002000F066F9BC
:1007C000002000F0FDF8394DC5F89C42642005F585
:1007D000277500F0DBFA2E600021AE2000F0CEF885
:1007E0000021D52000F0CAF80021502000F0C6F802
:1007F0000021A82000F0C2F800213F2000F0BEF840
:100800000021D32000F0BAF80021084600F0B6F825
:100810000021402000F0B2F800218D2000F0AEF859
:100820000021142000F0AAF80021202000F0A6F8F2
:100830000021022000F0A2F80021A12000F09EF883
:100840000021C02000F09AF80021DA2000F096F88C
:100850000021122000F092F80021812000F08EF893
:100860000021EF2000F08AF80021D92000F086F85E
:100870000021F12000F082F80021DB2000F07EF85A
:100880000021302000F07AF80021A42000F076F852
:100890000021A62000F072F80021AF2000F06EF8D1
:1008A000FFF73AFF7CBD000000100240000042420A
:1008B00070B5104E002505F1B000C0B2002100F067
:1008C0005DF80021084600F059F80021102000F0E2
:1008D00055F8002406EBC4000121405D00F04EF8FD
:1008E000641CE4B2802CF5D36D1CEDB2082DE2D36C
:1008F00070BD0000F80000202DE9F04F203A984626
:100900000D468346894602F0FF0A00262EE0B8F124
:100910000C0F08D0174901EB0A100027845D200650
:1009200007D5099A08E014490AEB4A0001EB800058
:10093000F3E7099890B1002229465846FFF702FFD5
:100940006D1C6006EDB2040EA5EB0901414507D10F
:100950000BF101004D4600F0FF0B05E00122EBE733
:100960007F1CFFB2082FDAD3761CF6B24645CED3F1
:10097000BDE8F08F422B0008CE26000830B50023DA
:100980000E4A012411B1C2F8A04201E0C2F8A0321F
:100990000021C2F89432050602D5C2F8984201E05F
:1009A000C2F89832C2F894424006491C000EC9B2FF
:1009B0000829EED3C2F8A04230BD00000000424238
:1009C000014908627047000000000E42044A0029F5
:1009D000116801D0014300E08143116070470000BD
:1009E00030380240044A0029116801D0014300E078
:1009F00081431160704700004038024070B5204BC1
:100A00001968204C11F00C0104D06610042903D0A1
:100A1000082903D004601BE0066019E0184A121F81
:100A20001168C1F38055116801F03F0115B1B6FBA3
:100A3000F1F101E0B4FBF1F114681268C4F3881419
:100A40006143C2F30142521C5200B1FBF2F101605A
:100A500019680F2202EA11110B4A545C0168E14047
:100A600041601C68072505EA9424145D21FA04F40A
:100A700084601B6805EA5333D25CD140C16070BD0D
:100A8000083802400024F400280000200549002214
:100A90000A700A70012802D0042801D105200870CC
:100AA00070470000703802400CB5002227490092C0
:100AB0000192086840F4803008604FF4A043086851
:100AC00000F4003001900098401C0090019810B98B
:100AD00000989842F3D10868800334D50120019032
:100AE0001A484030026842F080520260184802689A
:100AF00042F4404202601548083002680260026811
:100B000042F400420260026842F4A0520260031FF5
:100B1000104A1A600A6842F080720A600A689201FC
:100B2000FCD50D4940F205720A60016821F003010D
:100B30000160016841F0020101600168C1F38101B7
:100B40000229FAD10CBD01920CBD00000038024010
:100B50000070004008544007003C02404FF0E02184
:100B60000428086903D020F004000861704740F0B1
:100B70000400FAE710B501F061FB012803D0BDE8DD
:100B8000104001F025B910BD124810B5016841F4BC
:100B9000700101601048016841F0010101600E4AD6
:100BA00000210832116002680C4B1A400260031DDC
:100BB0000B4A1A60026822F48022026006480C3058
:100BC0000160FFF771FF03494FF000608039086052
:100BD00010BD000088ED00E000380240FFFFF6FE87
:100BE0001030002438B50B4C40F22551204600F05F
:100BF0001DF860B1204600F0A7F8C2B201200090B5
:100C00000C2328216E20FFF777FEFFF751FE00200E
:100C100038BD0000004800400029818902D041F41D
:100C2000005101E021F400518181704770B501F05D
:100C30001F0501260024C1F3421306FA05F2012B19
:100C40000FD0022B0FD0838A4FEA11210088134264
:100C500006FA01F600EA060001D000B101242046A0
:100C600070BD8389F0E7038AEEE710B5C1F3421344
:100C700001F01F040121A140012B07D0022B07D056
:100C80001430002A026805D00A4304E00C30F8E76B
:100C90001030F6E78A43026010BD00007FB50446BD
:100CA000008A0D46C98820F4405001432182A08962
:100CB00041F20C618843A9882A8911436A89024359
:100CC0001143A181A08A20F44071A8890843A08221
:100CD0006846FFF793FE1A48844202D019488442BE
:100CE00001D1039800E00298A189090400EBC0013A
:100CF00001EB0010296801D5490000E08900B0FB34
:100D0000F1F06422B0FBF2F109010B096FF0180554
:100D10006B4300EB8300A3891D044FF0320306D51B
:100D200003EBC000B0FBF2F000F0070005E003EBBE
:100D30000010B0FBF2F000F00F00084320817FBDEF
:100D400000100140001401408088C0F30800704783
:100D5000FEE7000010B504460420FFF7FFFE0A4836
:100D60004FF47A71047014FB01F1012242804FF0BC
:100D7000E020026942F0020202614161016941F032
:100D80000101016110BD00000C00002070B5044697
:100D900001F054FA01280BD0094D6888844203D32E
:100DA000B4FBF0F000F0C2FE6888B4FBF0F070BD58
:100DB0004FF47A706043BDE8704000F003B8000063
:100DC0000C00002070B54FF0E02500216C69094A45
:100DD000AB6912785043AA699A42FCD002D2A3EBC5
:100DE000020302E0A4EB0206334419441346814295
:100DF000F1D370BD0C00002070B5054600244FF4FF
:100E00007A7603E03046FFF7DDFF641CAC42F9D38D
:100E100070BD30380A2802D34FF4FA707047FA21B7
:100E200010FB01F0704700000949A0F1410201EBFD
:100E30008001A1F58051062A02D8D1F8FC0E704736
:100E40006138062802D8D1F8980E70470020704704
:100E5000440000202B2807D02C2803D02E2805D0B2
:100E60005F2805D005207047002070471420704788
:100E70001E207047054C064DD4F8A802C043C4F8A4
:100E8000A802286800F052FEF6E700000000424287
:100E9000380000201CB500F0E9FC144C206800F07C
:100EA000F7FC0420211DCDE900018201002310A1DF
:100EB000124801F095F912480090002301224FF4E6
:100EC0007A7110A001F092FBA06001F0C5F9024612
:100ED0000020034600900121A06801F0CBFB01280F
:100EE00001D100F0CFFE00201CBD0000000000205A
:100EF00073746172745F7461736B00000D18000885
:100F0000750E000874696D65723100002DE9F047B7
:100F100005004FF0000418D00F4E01EB4100A04631
:100F20004FF00109C0EBC1174FEA550AB4EBC70FE8
:100F300010D2C6F8A8925046FFF744FFC6F8A88220
:100F40005046FFF73FFF2C44F0E7BDE8F047084666
:100F5000FFF752BFBDE8F0870080404270B50446FD
:100F600017E0641CFFF760FF02462078002813D0CA
:100F7000641CFFF74EFF0146207800280CD0641C4B
:100F8000FFF768FF05461046FFF7C0FF2846FFF74A
:100F900019FF20780028E4D170BD00002DE9F04150
:100FA0001E4D0F460446EE682868001D00F0D2FC76
:100FB00038B9286890F82C100120884029698143AD
:100FC0002961601C15D1A7B115492A68486890604D
:100FD0002B688268DA602A688368121D5A602A6862
:100FE000121D8260286841610868401C0860BDE8E5
:100FF000F08128683444B4424460296805D2E86B23
:10100000BDE8F041091D00F0CDBCA86B091D00F042
:10101000C9FCA86A8442EAD2AC62E8E77C000020FE
:10102000080800202DE9F041044600F0DFFC354EB1
:10103000B068401CB0603068334F10B1706930B395
:101040002BE03460B068012827D1002505EB85002E
:1010500007EB800000F098FC6D1C202DF6D32B4888
:1010600000F092FC2948143000F08EFC274828300C
:1010700000F08AFC25483C3000F086FC23485030C4
:1010800000F082FC2148B0631430F06305E0306862
:10109000E16AC06A884200D83460706A0121401C4D
:1010A00070626064E06A326981401143316100EB33
:1010B000800007EB80004068A0608168E160826882
:1010C000211D51608160E06A00EB800007EB800128
:1010D000616157F82010491C47F8201000F09AFC75
:1010E000706900280CD03068E16AC06A884207D273
:1010F00007494FF080500860BFF34F8FBFF36F8FE9
:10110000BDE8F0817C00002038050020B8070020F1
:1011100004ED00E010B500F069FC0E4C2068A0B9A9
:101120000D4800F031FC0C48143000F02DFC0A484A
:10113000E0601430206100221021052000F05EFEE6
:10114000206010B105A100F0B1FCBDE8104000F036
:1011500061BC0000BC0000201C080020546D7251CE
:101160000000000030B4026C0B46002A0BD0C168AE
:101170001144C1608468A14201D30168C16030BCE0
:101180001846FFF7D1B830BC70472DE9F041856BA8
:10119000174604460026026C82B1C7B1E068FFF72B
:1011A000C3F8E168206C091AE1602268914202D21A
:1011B000A168081AE060022F16D017E02068A8B9CD
:1011C000A06801F0D9F806460020A0600EE0606833
:1011D000FFF7AAF8216C606808446060A168884243
:1011E00004D32068606001E005B16D1E6D1CA5632D
:1011F0003046BDE8F08110B50446006B00F014FCE9
:101200002046BDE8104000F00FBC00000E484FF42F
:10121000A041420706D0C01D0B4920F00700411A2B
:10122000C1F5A041094B00220144C3E9000208397D
:10123000143B21F0070119604A600A600A1AC0E9EC
:1012400000129A605A60704744080020E4000020B1
:10125000134E144DA6F52F774FF08058DFF84890C5
:1012600011E000F0C3FBF068C468201D00F072FBC1
:10127000A868401EA8606868401E686000F0CAFB4D
:101280002046FFF7B8FF68680028EAD138680128CF
:10129000F9D9C9F80080BFF34F8FBFF36F8FF2E722
:1012A000F40700207C00002004ED00E02DE9F04769
:1012B0000E46DDE909841746824691009946089D4D
:1012C000A522206BFFF775F86FF00301206B01EB8F
:1012D0008701084420F0070766B100202218315C1E
:1012E00082F83410315C11B1401C1028F6D3002074
:1012F00084F84300202D00D31F25E562201DE564FE
:1013000000F04DFB04F1180000F049FB2461C5F129
:1013100020006462A0614A465146384600F030FA27
:101320002060B8F1000F01D0C8F80040BDE8F08798
:1013300030B5114900E011460A688242FBD34B6880
:101340005C18844203D140681844486008464368EA
:101350001C18944209D1084C143C2468A24209D0BC
:1013600052681A4442600A6812680260814200D0E2
:10137000086030BD0460F9E7E400002070B5002487
:1013800041600B4D0061914206D8D11A82699142A9
:1013900006D2011D286907E09A4203D2994201D37F
:1013A000012403E0011DE86800F0FCFA204670BD4E
:1013B000BC00002010B5044600F018FBA06B20B163
:1013C000002400F027FB204610BD0124F9E7F1B509
:1013D00000260098846CA06BA06BE16B884210D251
:1013E00094F94550002269462046FFF7CEFE064696
:1013F000681C08D000F0C2FA854202D26D1C84F845
:1014000045503046F8BD606A0028FAD004F1240047
:1014100000F0FAFF0028F4D00126F2E770B5064686
:101420000D480D46C068C068C468201D00F092FADF
:1014300094F82800410705D52A463146204600F099
:10144000B5F803E000F0FE0084F828002046216A89
:10145000BDE8704008470000BC00002070B586B0B1
:10146000364E61E00098002806DADDE90201019AB3
:1014700090470098002857DB029C606910B1201D3E
:1014800000F068FA04A800F0B3F8054600980A28AE
:101490004AD2DFE800F0490505282E3D0505282E33
:1014A00094F828002A4640F0010084F828000198AA
:1014B000A169034601442046FFF760FF38B394F862
:1014C0002800410707D50198A1692A460144204612
:1014D00000F06CF803E000F0FE0084F82800216AB8
:1014E0002046884720E014F8280F00F0FE00207006
:1014F0001AE094F828002B4640F0010084F82800F8
:101500000198A06141191A462046FFF737FF0BE00A
:1015100094F82800810703D4204600F085FA03E000
:1015200000F0FE0084F8280000226946306800F0D0
:10153000B1FD002896D106B070BD0000BC000020AF
:10154000F8B50D46064600F0C9FB684600F050F8B5
:101550000446009810B100F0BDFFF8BD1148ADB1D0
:1015600001690968D9B10025311B2A46006800F0DD
:10157000BBFA00F0AFFF0028EFD10B494FF08050CD
:101580000860BFF34F8FBFF36F8FF8BDA642EBD853
:1015900000F0A0FF21463046FFF740FFF8BD0125CF
:1015A000E2E70000BC00002004ED00E070B5164644
:1015B0000C46054604E0A869296A04442846884781
:1015C000A8692346011932462846FFF7D7FE0028AE
:1015D000F1D170BD0548816B096821B1816BC96883
:1015E0000968816270474FF0FF31FAE77C00002004
:1015F0002DE9F041064600F02FFE0E4D0446A86886
:10160000844214D24FF0FF3704E0C06839460068C6
:10161000FFF704FFE86801680029F6D12969C5E9E8
:101620000310012030602046AC60BDE8F08100204E
:10163000F8E70000BC000020502080F31188BFF3C1
:101640004F8FBFF36F8FFEE7084CE068016839B138
:10165000002139B10020FFF773FFFFF7FFFEF4E729
:101660000121F6E7C0680068F5E70000BC00002033
:101670002DE9F041044600F0B9F994F9455004F120
:1016800024060FE0A06C18B12046FFF7A0FE04E08E
:10169000606A48B1304600F0B7FE08B100F0BAFA0F
:1016A0006D1E6DB2002DEDDC4FF0FF3684F8456005
:1016B00000F0B0F900F09AF994F9445004F11007E1
:1016C00009E0206948B1384600F09EFE08B100F0FC
:1016D000A1FA6D1E6DB2002DF3DC84F84460BDE804
:1016E000F04100F097B9000070B50446002500F005
:1016F000F5FA224E306808B9FFF788FDCCB304F044
:101700000700C0F11000C1438C4232D821180029D3
:101710002FDD706881422CD8184A143210460468B4
:1017200001E0224604466068884202D22068002810
:10173000F7D1306884421CD015682068106060685A
:101740000835421A102A04D9601842606160FFF718
:10175000EFFD61687068401A7060B268904200D214
:10176000B06041F00040606000202060F068401CE4
:10177000F06000F0AFFE284670BD0000D0000020F1
:1017800010B5031F4FF080741C601B1F21F0010176
:101790001960191F044B0B6014390A60091F6FF0A0
:1017A000020244380A6010BD391600080AA52C460A
:1017B0004FF47A7602E000F0C3F8641C2078002829
:1017C000F9D100F0BDF80A2000F0BAF82C463046F6
:1017D00000F0ACF9F2E700004C6F6F20536920482D
:1017E00075690000074E084C4FF480752946304655
:1017F000FEF727FF18B16068FFF7B0FBF6E7206837
:10180000FAE70000000C02403C0000201CB500F08C
:10181000EDF800240420CDE90004234680220AA12B
:101820000C4800F0DDFC0620CDE9000400238022F6
:1018300009A10C4800F0D4FC0B48406800F092F974
:10184000BDE81C4000F0E6B8736F6E675F746173AB
:101850006B000000E517000873686F775F756172B1
:1018600074000000AD1700080000002010B54FF410
:101870004070FEF747FFA820FFF76CFAFEF7EEFE78
:10188000FEF758FEFEF77CFFBDE81040FEF774BE81
:101890002DE9F041804688B001210420FFF796F839
:1018A00001218804FFF79EF8234F07220A213846BA
:1018B000FEF7B7FE07220B213846FEF7B2FE0225DF
:1018C0008DF8145000244FF440608DF816400490B9
:1018D0008DF8155001268DF8176004A93846FEF7DB
:1018E00064FE27208DF818008DF819508DF81A40E5
:1018F0008DF81B6006A8FEF7D3FEADF80440ADF8E6
:101900000640ADF80840ADF80C400C200B4CADF88B
:101910000A00CDF8008069462046FFF7BFF9012292
:1019200040F225512046FFF7A0F901212046FFF79C
:1019300073F908B0BDE8F08100080240004800409B
:1019400003490880081F01884906FCD5704700003C
:1019500004480040D0E9013201699A60D0E90123CE
:101960005A604A68824201D182684A60002202615C
:101970000868401E086008687047000001488068D9
:10198000704700007C00002000F108014FF0FF329A
:10199000C0E90112C16001610021016070470021AE
:1019A0000161704730B50C68621C02D000F108027A
:1019B00002E0026904E01A4653681D68A542FAD99C
:1019C00053684B6099608A60516008610168491CE6
:1019D000016030BD42684A6093688B6093685960CB
:1019E000916008610168491C01607047502080F3D4
:1019F0001188BFF34F8FBFF36F8F04494868401CB5
:101A00004860012801D1024800687047EC000020BE
:101A100004ED00E003494868401E486001D180F3AE
:101A200011887047EC00002070B500281BD0A0F191
:101A300008046068002816DA2168002913D120F014
:101A40000040606000F04AF9074D6068696808442A
:101A500068602046FFF76CFC2869401C2861BDE8DF
:101A6000704000F037BD70BDD00000204FF0E02086
:101A700000210161816105494FF47A720968B1FB67
:101A8000F2F1491E416107210161704714000020F5
:101A900010B5FEF725FC102803D300F1E02090F8E4
:101AA000F0030148006810BD0CED00E070B50023A4
:101AB000002915D00B4D002205EBC2046668864252
:101AC00002D105EBC20307E01BB955F8326006B935
:101AD0002346521C082AEFD3002B01D0C3E9001083
:101AE00070BD0000F804002070B515460E4604468F
:101AF000FFF77CFF94F944100020491C01D184F8C1
:101B0000440094F94510491C01D184F84500FFF7C1
:101B100081FFA06B28B92A46314604F1240000F069
:101B200091F82046BDE87040FFF7A2BD10B5020055
:101B30000BD00A48406B00F0D1F800211046FFF7A7
:101B40002DFA00F0C7FC002807D105494FF080505E
:101B50000860BFF34F8FBFF36F8F10BD7C00002074
:101B600004ED00E070B50446FFF740FF214D04B9D5
:101B70002C68201DFFF7EEFE58B9E06A1E4A00EB04
:101B8000800152F8211021B9012181402869884340
:101B90002861A06A18B104F11800FFF7DBFE686A3B
:101BA000401C68622868844207D1211D1348FFF752
:101BB00011FF6868401C686004E0A868401EA860C7
:101BC000FFF708FDFFF726FF2868844202D0204671
:101BD000FFF711FB686900280BD02868844208D100
:101BE000686B07494FF080500860BFF34F8FBFF319
:101BF0006F8F70BD7C00002038050020F4070020A6
:101C000004ED00E002490A6A0260C9684160704759
:101C10007C00002001490120C86170477C00002041
:101C2000024610B506480C46016810461831FFF709
:101C3000B9FE2046BDE810400121FFF7AFB9000012
:101C40007C000020F0B40E4B0C4641681D68E96131
:101C50008D681E6835621D688E68183575601D6850
:101C600018358D60196888620168491C01600AB1E5
:101C70004FF0FF342046F0BC1146FFF78FB900004B
:101C80007C0000207CB511480025CDE900502B4692
:101C900082220FA1104800F0A3FA0C4C2C3C012822
:101CA00012D100F0C9FC01280ED1502080F3118818
:101CB000BFF34F8FBFF36F8F4FF0FF30A062012053
:101CC0006061E56000F036F8206B7CBDA800002064
:101CD00049444C4500000000511200080248416B85
:101CE000491C4163704700007C0000200F4A506B84
:101CF00010B10120D06170470020D06110690C49FB
:101D0000B0FA80F0C0F11F0000EB800051F82030E5
:101D100001EB800000F10803416849684160994285
:101D200001D149684160C868106070477C0000209C
:101D3000380500201CB52248016800682149087850
:101D40000190FF20087008788DF800009DF80000D1
:101D50009DF800009DF800001B4C00F05000207022
:101D60000720A06007E0A068401EA0609DF800006A
:101D700040008DF800009DF800000006F3D4207AA2
:101D8000000200F4E060A060019808700C48203068
:101D9000016841F470010160016841F07041016027
:101DA000FFF764FE00206060FEF762FA07480168F2
:101DB00041F040410160FEF747FA00201CBD0000E1
:101DC00000ED00E000E400E0EC00002034EF00E073
:101DD00010B5502080F31188BFF34F8FBFF36F8F82
:101DE00000F040FA18B104494FF08050086000201C
:101DF00080F3118810BD000004ED00E02DE9F041F2
:101E000017460E4605004FF000041CD0601EB0FBC4
:101E1000F5F0B04217D305FB06F010F1550F12D8BC
:101E20005430FFF761FC04000DD004F154006EB192
:101E30002060C4E90F562046012100F009F884F81B
:101E400050700021A1642046BDE8F0812460F0E7D5
:101E50002DE9F0410E4604004FF001053BD0E06B48
:101E6000C0B3AF1EB7FBF0F1206C814233D3FFF754
:101E7000BDFDD4E90F20216802FB0011A160002103
:101E8000A163216861600A46D4E90F01401E00FB8E
:101E900001212046E16000F8447F477004F1100002
:101EA00046B1FFF771FD04F12400FFF76DFDFFF768
:101EB000B1FD11E021690029F9D000F0A5FA002850
:101EC000F5D007494FF080500860BFF34F8FBFF344
:101ED0006F8FECE7FFE700252846BDE8F0810000A2
:101EE00004ED00E02DE9FF4F83B099468B46044690
:101EF000002600F0A3F9B2464FF08057DFF8F880D3
:101F0000FFF774FDA06BE16B884206D3B9F1020FB5
:101F100003D0059820B336B329E0A56B4A4659464D
:101F20002046FFF732F9A16C39B1B9F1020F00D1A7
:101F300085B92046FFF74BFA05E0616A19B104F153
:101F4000240000F061FA28B1C8F80070BFF34F8F89
:101F5000BFF36F8FFFF75EFD012007B0BDE8F08F84
:101F6000FFF758FD21E06846FFF74CFE0126FFF71A
:101F700051FDFFF7B3FEFFF739FD94F94400401C13
:101F800001D184F844A094F94500401C01D184F8A3
:101F900045A0FFF73FFD05A9684600F0F5F830B110
:101FA0002046FFF765FB00F095FA0020D5E7FFF724
:101FB0001DFDA06BE16B884201D1012500E00025E9
:101FC000FFF728FD95B104F110000599FFF728FEF1
:101FD0002046FFF74DFB00F07DFA002890D1C8F8AD
:101FE0000070BFF34F8FBFF36F8F89E72046FFF775
:101FF0003FFB00F06FFA83E704ED00E02DE9F047C6
:10200000984616468A460446FFF742FD5020EFF3F5
:10201000118780F31188BFF34F8FBFF36F8FA06BD1
:10202000E16B884207D3B8F1020F04D0002087F398
:102030001188BDE8F08794F94550D4F838904246AD
:1020400051462046FFF7A1F8681C08D0FFF796FC20
:10205000854202D26D1C84F845500120E7E7A06C50
:10206000012548B1B8F1020F02D1B9F1000FF4D146
:102070002046FFF7ACF906E0606A0028EDD004F1D5
:10208000240000F0C1F90028E7D0002EE5D035602B
:10209000E3E700002DE9F74783B08A4604460026AF
:1020A00000F0CCF800274FF08058DFF8D890FFF709
:1020B0009DFCA56BC5B151462046FFF753F86D1E38
:1020C000A563206950B104F1100000F09DF928B11A
:1020D000C9F80080BFF34F8FBFF36F8FFFF79AFCF3
:1020E000012006B0BDE8F087059808B11EB106E0F2
:1020F000FFF790FC27E06846FFF784FD0126FFF715
:1021000089FCFFF7EBFDFFF771FC94F94400401CDC
:1021100001D184F8447094F94500401C01D184F841
:102120004570FFF777FC05A9684600F02DF80028F8
:1021300020460AD0FFF79CFA00F0CCF92046FFF7C2
:1021400039F90028B3D00020CBE7FFF733F990B17D
:1021500004F124000599FFF763FD2046FFF788FA94
:1021600000F0B8F90028A2D1C9F80080BFF34F8F62
:10217000BFF36F8F9BE72046FFF77AFA00F0AAF9CA
:1021800095E7000004ED00E02DE9F0410D4604461E
:10219000FFF72CFC114EF26863682868D11A471CBF
:1021A0000AD02768D6F820C00026674506D093429B
:1021B00004D801242E600BE0002409E0884205D9F0
:1021C000401A28602046FFF71DFDF5E701242E6028
:1021D000FFF720FC2046BDE8F08100007C000020D5
:1021E0002DE9FF5F8346DDE90E87994616468A464C
:1021F0009000FFF779FA05001DD05C20FFF774FA14
:10220000040015D05C21FEF7FEF825630021CDE91E
:102210000241CDE900874B46324651465846FFF70A
:1022200045F82046FEF7FEFE012004B0BDE8F09F11
:102230002846FFF7F9FB4FF0FF30F6E70548416904
:1022400019B1406B18B1002070470120704702207F
:10225000704700007C0000200148C0687047000003
:102260007C0000202DE9F041414E0025706B28B123
:10227000B069401CB0612846BDE8F081F468641C78
:10228000F4600AD1B06B0068B06BF16BB163F063BE
:10229000306A401C3062FFF79DF9B06ADFF8D4E085
:1022A00084420BD34FF0000CB06B0068A0B1B06B50
:1022B000C068C1684868844211D2B0623068C06AA0
:1022C00000EB80005EF82000012800D90125F069AC
:1022D0000028D0D00125CEE74FF0FF30EDE7D1E95F
:1022E000023248699A60D1E902235A6043680A1DA4
:1022F000934201D1CB684360C1F814C003685B1EF0
:102300000360886A88B1D1E907379F60D1E9073750
:102310007B60476801F118039F4201D10B6A43605B
:10232000C1F828C003685B1E0360C86A01233769CF
:1023300083403B43336100EB80000EEB800040683C
:1023400088608368CB6083685A608260C86A00EBEB
:1023500080000EEB80024A615EF82020521C4EF88D
:102360002020C86A3168C96A88429DD901259BE747
:102370007C0000203805002070B504004FF00000FC
:102380003CD01F4D2968216D491E2165E36CE26A2E
:102390009A4233D0002931D1201DFFF7DBFA012109
:1023A00030B994F82C002A6901FA00F082432A61BE
:1023B000E06CE062C0F12000A061E06A2A6981401F
:1023C000114329610F4A00EB800002EB8000406856
:1023D000A0608168E1608368211D59608160E06AC6
:1023E00000EB800002EB80006061E06A00EB80009F
:1023F00052F82010491C42F82010012070BD000046
:102400007C0000203805002070B5C068C068D0E9A5
:102410000732816A9A60D0E907235A604B6800F15D
:102420001802934201D1036A4B60002585620B6854
:102430005B1E0B60244B596B012499B1234D6968D5
:10244000C1618E6806628E6872608A6085622968E2
:10245000491C2960C06A1968C96A884231D90120BB
:10246000DC6170BDD0E902624169B260D0E9022648
:1024700072604E68021D964201D1C6684E60456189
:102480000D686D1E0D60C16A1E6904FA01F53543C1
:102490001D610F4D01EB810105EB810149688160F0
:1024A0008E68C6608E6872608A60C16A01EB8101C5
:1024B00005EB8102426155F82120521C45F821208C
:1024C000C8E7002070BD00007C000020E00700206D
:1024D000380500202DE9F047404D0024A146686BE7
:1024E000FFF784FA686B401E6863686B002870D140
:1024F000A868DFF8ECC000264FF00108E8BB68E0F0
:10250000DCF80C00C468D4E90721A06A9160D4E922
:1025100007125160426804F118018A4201D1216A10
:102520004160A6620168491E0160D4E90221606928
:102530009160D4E9021251604268211D8A4201D1A2
:10254000E268426066610268521E0260E06A2F69BA
:10255000434608FA00F23A432A61224A00EB80001F
:1025600002EB80004068A0608768E7608768796058
:102570008160E06A00EB800000E00DE002EB80018A
:10258000616152F82010491C42F82010E06A296865
:10259000C96A884200D3EB61DCF800000028AFD1A3
:1025A0000CB1FFF717F8AC693CB14746FFF75AFE8C
:1025B00000B1EF61641EF9D1AE61E86948B10A4922
:1025C0004FF080504FF001090860BFF34F8FBFF309
:1025D0006F8FFFF71FFA4846BDE8F0877C000020A8
:1025E000E00700203805002004ED00E02DE9F04769
:1025F00080461F4615460E462C20DDF82090FFF73A
:1026000073F8040014D0002084F82800FEF782FD3F
:1026100004F11801C4F8008081E8C002201DFFF712
:10262000BEF92DB194F8280040F0040184F8281078
:102630002046BDE8F08700001CB50024FEF76AFDC7
:102640000848006860B107491F20091DCDE9000155
:1026500000234FF4827204A10548FFF7C1FD044630
:1026600020461CBDBC000020546D722053766300D0
:10267000491600082DE9FF41114D1F4603462C68FD
:1026800000200A9E002C0ED08DE80E0006290FDADD
:10269000FFF7D4FD02284FF0000307D0002269465F
:1026A0002868FFF71FFC04B0BDE8F0813246F6E76A
:1026B00000233A4669462046FFF7A0FCF3E70000F6
:1026C000BC0000204FF04070E1EE100A704700009F
:1026D00000000000000000000000000000003F407B
:1026E000000000000000000030004000300040000A
:1026F000000009000BC03D000BC03D00090018C0E0
:1027000024407FE0224031800000180024C01B00DC
:102710000D803240018003801C4027401C80074010
:1027200000401000600000000000000000000000F9
:10273000000000001F80204040200000402020407A
:102740001F8000000000090006001F80060009002D
:102750000000040004003F8004000400000000109A
:1027600000600000000000000000040004000400FD
:102770000400040000000000004000000000000011
:102780000000002001C006003800400000001F804B
:102790002040204020401F800000000010403FC02B
:1027A00000400000000018C0214022402440184092
:1027B000000010802040244024401B8000000200C4
:1027C0000D0011003FC0014000003C802440244027
:1027D0002440238000001F80244024403440038094
:1027E00000003000200027C03800200000001B80BF
:1027F0002440244024401B8000001C0022C02240B2
:1028000022401F800000000000000840000000007F
:102810000000000000000460000000000000000054
:1028200004000A001100208040400900090009004E
:1028300009000900000000004040208011000A004B
:1028400004001800200023402400180000001F800E
:102850002040274029401F400000004007C03900A9
:102860000F0001C0004020403FC0244024401B8096
:1028700000001F8020402040204030800000204089
:102880003FC0204020401F80000020403FC0244027
:102890002E4030C0000020403FC024402E003000B9
:1028A00000000F00108020402240338002002040B2
:1028B0003FC0040004003FC02040204020403FC0F3
:1028C0002040204000000060202020203FC0200049
:1028D000200020403FC024400B0030C0204020405A
:1028E0003FC020400040004000C03FC03C0003C04B
:1028F0003C003FC0000020403FC00C4023003FC0D0
:1029000020001F802040204020401F8000002040E9
:102910003FC024402400180000001F8021402140B7
:1029200020E01FA0000020403FC02440260019C026
:10293000004018C024402440224031800000300074
:1029400020403FC020403000000020003F80004079
:1029500000403F80200020003E0001C007003800FA
:102960002000380007C03C0007C0380000002040AD
:1029700039C0060039C0204000002000384007C0A0
:10298000384020000000304021C02640384020C0A0
:102990000000000000007FE0402040200000000018
:1029A00070000C0003800040000000004020402028
:1029B0007FE0000000000000200040002000000038
:1029C00000000010001000100010001000100000A7
:1029D00000004000000000000000000002800540F0
:1029E000054003C0004020003FC004400440038075
:1029F0000000000003800440044006400000000086
:102A00000380044024403FC0004000000380054094
:102A1000054003400000000004401FC02440244043
:102A20002000000002E00550055006500420204020
:102A30003FC00440040003C000400000044027C021
:102A400000400000000000100010041027E000000B
:102A5000000020403FC00140070004C00440204067
:102A600020403FC000400040000007C0040007C0F5
:102A7000040003C00000044007C00440040003C079
:102A80000040000003800440044003800000041064
:102A900007F004500440038000000000038004405D
:102AA000045007F00010044007C002400400040076
:102AB0000000000006400540054004C00000000082
:102AC00004001F8004400040000004000780004014
:102AD000044007C000400400070004C00180060055
:102AE0000400060001C0070001C006000000044009
:102AF00006C0010006C0044000000410071004E0F6
:102B00000180060004000000044005C006400440A7
:102B100000000000000004007BE0402000000000F6
:102B200000000000FFF000000000000040207BE0FB
:102B30000400000000004000800040002000200051
:102B40004000000000000000000000000000000045
:102B500000000000000000001FCC000C000000007E
:102B60000000000008003000600008003000600035
:102B70000000022003FC1E20022003FC1E20022075
:102B8000000000000E1811043FFF10840C780000B4
:102B900000000F0010840F3800C0077818840078F8
:102BA000000000780F8410C411240E9800E4008403
:102BB000000808006800700000000000000000002D
:102BC000000000000000000007E018182004400288
:102BD0000000000040022004181807E00000000078
:102BE00000000240024001800FF0018002400240DC
:102BF00000000080008000800FF8008000800080CE
:102C000000000001000D000E0000000000000000A8
:102C100000000000008000800080008000800080B4
:102C200000800000000C000C00000000000000000C
:102C30000000000000060018006001800600180077
:102C40002000000007F0080810041004080807F02E
:102C500000000000080408041FFC00040004000039
:102C6000000000000E0C10141024104411840E0CEF
:102C7000000000000C1810041104110412880C70DC
:102C80000000000000E00320042408241FFC0024AE
:102C9000000000001F9810841104110410881070A7
:102CA0000000000007F00888110411041888007063
:102CB000000000001C00100010FC13001C0010009D
:102CC000000000000E3811441084108411440E38A6
:102CD000000000000700088C10441044088807F02A
:102CE0000000000000000000030C030C00000000C6
:102CF00000000000000000010106000000000000CC
:102D000000000000008001400220041008081004A8
:102D100000000220022002200220022002200220C5
:102D20000000000010040808041002200140008088
:102D3000000000000E001200100C106C10800F003C
:102D4000000003E00C1813E4142417C4082807D06B
:102D500000000004003C03C41C40074000E4001CC9
:102D6000000410041FFC1104110411040E880070EB
:102D7000000003E00C1810041004100410081C10CC
:102D8000000010041FFC100410041004080807F0D1
:102D9000000010041FFC1104110417C410040818CB
:102DA000000010041FFC1104110017C010000800DF
:102DB000000003E00C181004100410441C780040BC
:102DC000000010041FFC10840080008010841FFC91
:102DD00010040000100410041FFC10041004000074
:102DE000000000030001100110011FFE1000100080
:102DF000000010041FFC110403801464181C10044C
:102E0000000010041FFC1004000400040004000C67
:102E1000000010041FFC1F0000FC1F001FFC10041A
:102E2000000010041FFC0C04030000E010181FFC3D
:102E3000100007F00808100410041004080807F038
:102E4000000010041FFC10841080108010800F0000
:102E5000000007F0081810241024101C080A07F2BC
:102E6000000010041FFC1104110011C011300E0CE1
:102E7000000400000E1C11041084108410441C383F
:102E800000001800100010041FFC100410001800AF
:102E9000000010001FF810040004000410041FF8C4
:102EA000100010001E0011E0001C007013801C00B8
:102EB00010001FC0103C00E01F0000E0103C1FC0CD
:102EC00000001004180C163401C001C01634180C90
:102ED000100410001C00130400FC13041C0010005C
:102EE00000000804101C1064108413041C04101843
:102EF00000000000000000007FFE4002400240028F
:102F00000000000030000C0003800060001C000383
:102F1000000000004002400240027FFE000000006E
:102F200000000000000020004000400040002000A1
:102F3000000000010001000100010001000100018A
:102F400000010000400040002000000000000000E0
:102F5000000000000098012401440144014400FCE9
:102F6000000410001FFC00880104010400880070A8
:102F700000000000007000880104010401040088C2
:102F800000000000007000880104010411081FFC0B
:102F90000004000000F8014401440144014400C859
:102FA00000000000010401040FFC110411041100D1
:102FB0001800000000D601290129012901C90106D4
:102FC000000010041FFC008401000100010400FC4B
:102FD000000400000104190419FC000400040000AE
:102FE00000000000000300010101190119FE0000AA
:102FF000000010041FFC0024004001B4010C010477
:1030000000000000100410041FFC00040004000075
:103010000000010401FC0104010001FC01040100A5
:1030200000FC010401FC008401000100010400FC1B
:103030000004000000F8010401040104010400F888
:103040000000010101FF00850104010400880070F7
:10305000000000000070008801040104010501FF68
:1030600000010104010401FC00840104010001804D
:103070000000000000CC0124012401240124019857
:10308000000000000100010007F801040104000035
:103090000000010001F8000400040004010801FC24
:1030A0000004010001800170000C0010016001802B
:1030B000010001F0010C003001C00030010C01F0F2
:1030C000010000000104018C00740170018C0104F6
:1030D0000000010101810171000E001801600180F2
:1030E000010000000184010C013401440184010C41
:1030F0000000000000000000000001003EFC400253
:1031000040020000000000000000FFFF000000007F
:1031100000000000400240023EFC010000000000F0
:10312000000000006000800080004000400020009F
:103130002000000065322C64322C65322C64322C65
:1031400065322C42322C64322C63322C41325F4384
:10315000322C45322C41322C42325F45322C4732E0
:103160002C42322C63345F45322C65322C64322C75
:1031700065322C64322C65322C42322C64322C6342
:10318000322C41325F43322C45322C41322C4232B8
:103190005F45322C63322C42322C41340000000057
:1031A000C031000800000020F8000000C401000841
:1031B000B8320008F8000020B05D0000E00100080F
:1031C00000C201000000000000000000000000003C
:1031D00000000000007A030A000000000000000068
:1031E00001020304060708090000000001020304AD
:1031F000010203040607080988130000343100089F
:103200009C310008E0080000E8070000EE0E000016
:10321000490D0000D60B0000310B0000F70900003B
:1032200070040000F403000078070000A706000007
:10323000ED05000098050000FB0400000000000000
:10324000000000000000000000000000000000007E
:10325000000000000000000000000000000000006E
:103260000000000000000000000000001F0000003F
:10327000000000000000000000000000000000004E
:10328000000000000000000000000000000000003E
:10329000000000000000000000000000000000002E
:1032A000000000000000000000000000000000001E
:0832B000AAAAAAAA000000006E
:040000050800018965
:00000001FF
